:0F00E400750800750900750A00750B01750C0091
:2001580090DF0074FFF090DF01E4F090DF0214F090DF03E4F090DF04F090DF05F090DF0779
:200178007406F090DF08E4F090DF0C7499F090DF0DF4F090DF0E03F090DF0F7461F090DFB8
:2001980010747EF090DF117415F090DF127407F090DF137430F090DF1403F090DF1514F05C
:2001B80090DF1A74B6F090DF1B7411F090DF1C74E9F090DF1D742AF090DF1EE4F090DF1FA4
:2001D800741FF090DF247431F090DF257409F090DF2EE4F090DF177407F090DF18E4F0900E
:2001F800DF197491F090DF097426F090DF0A7430F090DF0B7470F090DF067402F090DF2D26
:2002180074C0F0439A01D2A822C0E0C082C083C007C006C0D075D00090DF3BE0FFBF0D52FA
:20023800AFD9E50A702090DF3AE0FE90F0C0F090F0C0E0700690F0C07401F090F0C1E50B7C
:20025800F0050B750A02E50B7003750B017440250A400FE50A24C0F582E434F0F583EFF046
:20027800050AEF703C75E10490DF3BE0FFBF01F8802F90DF3BE0FFBF1327C3E50995085052
:2002980013AF090509EF2400F582E434F0F583E0F5D9800D75D900050C7402B50C0375E139
:2002B80004D0D0D006D007D083D082D0E032C0E0539BFCE5E930E70875E10453E97F801230
:2002D800E5E930E60553E9BF8008E5E930E50353E9DFD0E032AF82750800750900750C000A
:2002F80075E10490DF3BE0FEBE01F890DF06EFF01209B4AF8274BFB508027F00AE080508C5
:20031800EE2400F582E434F0F583EFF0EF600A7402B508DC75E10380D790DF3BE0FFBF017C
:20033800F8AF0DEF6029E4F509F50CE50E600A850E82C00712081ED00775E10390DF3BE06B
:20035800FEBE13F890DF3BE0FEBE01F81F80D422AF8275E10490DF3BE0FEBE01F890DF06AB
:20037800EFF0750900750C0075E10390DF3BE0FFBF13F890DF3BE0FFBF01F822AF827E00C9
:20039800C007C0061204DBD006D00775E10490DF3BE0FDBD01F890DF06EFF0750A0075E15A
:2003B8000290DF3BE0FFBF0DF87F00C3EF950A503DEF7010E50A24FD500A90F0C2E070040A
:2003D8007ECC805BEF24C0F582E434F0F583E0FDF582C007C006C005120A39D005D006D0A0
:2003F800070FEF24FE5007EFB50A03ED6031E50F451045114512601BC3E50F9513E51095DE
:2004180014E5119515E51295165008E50A70047EAA800CE53460941209B48582177EBB7557
:05043800E1048E8222A8
:0600000002008B02022148
:01000B0032C2
:0100130032BA
:03001B000208C90F
:0100230032AA
:01002B0032A2
:01003300329A
:01003B003292
:01004300328A
:03004B000204E5C7
:01005300327A
:01005B003272
:01006300326A
:01006B003262
:0300730002095B24
:01007B003252
:030083000202C6B0
:030155000200861F
:0300860002043D34
:20043D0053BEFBE5BE30E6FB53C6B8E5C620E6FB43BE0443FF18753800758200120861756F
:20045D0038007582011208611204A5D2AF7538017582001208617582E812081E753800753F
:20047D0082001208617538017582011208617582E812081E7538007582011208611201589F
:08049D0012089F12056F80FB9D
:0900F300E4F513F514F515F516FA
:2004A50075E40075E20075E40185E23885E339C3E4953874A0953950F075E40075DB007539
:2004C500DA5D75E544AFD8A2DEE4334FF5D8D2B9D2AF75E40E22E4F513F514F515F5162247
:2004E500C0E0C0D0E513E514E515E51674012513F513E43514F514E43515F515E43516F59A
:0605050016D0D0D0E03258
:2000FC00751700E4F518F519751A39751B05751C42751D05751E0B751F05752083752105A8
:18011C007522A875230575248D75250675260475270875280A75290899
:20050B001209B4AF82C0071209FA85820F85831085F011F512D0078F82120394E582FFFE44
:20052B00600B8E82120A39758200020A3922900ABF75F080020A6F900AC275F080020A6F0D
:20054B00E582FF601EBF09005019EF2F2418F98706098707C007C0068E828F83120089D0EA
:20056B0006D007221209B412054BE517600985178212054B751700221209B4AF82C00712D4
:20058B0009B4AE82C0061209B485820ED006D0078E0D8F821202ED758200020A391209B454
:2005AB00AF82C0071209B4AE82C0061209B485822A1209B4AC82C0041209FAA882A983AA9D
:2005CB00F0FBC003C002C001C0001209B4AD82D000D001D002D003D004D006D0078E0D853A
:2005EB002A0E8F82C007C005C004C003C002C001C0001202EDD000D001D002D003D00488AE
:20060B000F89108A118B128C82C004C003C002C001C000120394AE82D000D001D002D003F8
:20062B00D004D005D007BEAA4AED60478F82C007C005C004C003C002C001C000120368D035
:20064B0000D001D002D003D004880F89108A118B128C82C004C003C002C001C0001203945C
:20066B00AE82D000D001D002D003D004D005D0071D80B3EE600B8E82120A39758200020A68
:20068B0039221209B4AF82C0071209B4AE82D0077D01EF24DE50030207F7EF240A83F5827E
:2006AB00EF242683F583E473F7FF070F171F272F373F474F575F676F777F878E959CA3AAEB
:2006CB00B1B8BFC6CDD4DBE2E9F00606070707070707070707070707070707070707070752
:2006EB0007070707070707070707070790DF00EEF00207F990DF01EEF00207F990DF02EE9D
:20070B00F00207F990DF03EEF00207F990DF04EEF00207F990DF05EEF00207F990DF06EE80
:20072B00F00207F990DF07EEF00207F990DF08EEF00207F990DF09EEF00207F990DF0AEE50
:20074B00F00207F990DF0BEEF00207F990DF0CEEF00207F990DF0DEEF00207F990DF0EEE20
:20076B00F00207F990DF0FEEF00207F990DF10EEF00207F990DF11EEF00207F990DF12EEF0
:20078B00F0806B90DF13EEF0806490DF14EEF0805D90DF15EEF0805690DF16EEF0804F90F7
:2007AB00DF17EEF0804890DF18EEF0804190DF19EEF0803A90DF1AEEF0803390DF1BEEF0CA
:2007CB00802C90DF1CEEF0802590DF1DEEF0801E90DF1EEEF0801790DF1FEEF0801090DFDF
:2007EB002DEEF0800990DF2EEEF080027D028D82120A39758200020A39C2AF75C909221252
:13080B0009B4AF82C0071209B4858238D0078F8202083DE8
:120ABF004F4B00737562675F726673707920302E380091
:1F081E00AF828F061FEE6016753937AE391539EE60F0753818AE381538EE60EF80F7224C
:06013400752B02752C0280
:20083D00E582FF700EAE388E2BBE020122EE24FF92A322BF010DAF388F2CBF020122EF2467
:20085D00FF92A422E582FF701B7402B52B337402B538028007E53824FF92A3227402B538C4
:20087D0020B2A322BF011A7402B52C157402B538028007E53824FF92A4227402B53802B2E3
:02089D00A42293
:1B013A00752D00752E00752F00753000753100753200753300753600753700D0
:20089F0074FE55F14402F5F143F4F053FE0F747F55F84420F5F875FA3BE5FC75FC0B53885B
:2008BF00F7D2AB53E8FB439A0822C0E0C082C083C007C0D075D000AFF9E535701ABF9917EC
:2008DF00E533600885303775330080037537007535018537F9805A7401B535148F36E53629
:2008FF007004E5376005753502804675350080417402B5353CC3E52D953650357424252D5C
:20091F004025E52E2480F582E434F1F583EFF0052E7424252E5003752E00052DE536B52D82
:20093F0006753600753401E5377006E5367002F535D0D0D007D083D082D0E032C0E0C08214
:20095F00C083C0D053E8FB7401B5350280057402B53536E537602DE53060291537E53770D4
:20097F0006E5367002F535E532245CF582E434F2F583E0F5F91530053274242532500D7500
:20099F003200800875F999800375F999D0D0D083D082D0E032E53460FCE52F2480F582E43E
:2009BF0034F1F583E0FF052F7424252F5003752F00152DE52D7002F5348F82221209B4AEE6
:2009DF00827F00C007C0061209B4AD82D006D0077C00ED2FF582EC3EF583221209DBAE82C6
:2009FF00AF838F048E057F007E00C007C006C005C0041209DBAA82AB83D004D005D006D0CE
:200A1F00078A008B01E4FAFBE82EFEE93FFFEA3DFDEB3C8E828F838DF022AF82742425305C
:200A3F00500D15300532742425325003753200E531245CF582E434F2F583EFF0EF70037590
:200A5F0033010531742425315003753100053022AD82AE83AFF08D828E838FF0120A9FFC7A
:200A7F0060188C82C007C006C005120A39D005D006D0070DBD00DF0E80DC758200020A3959
:0600BA00E478FFF6D8FD1A
:200098007900E94400601B7A00900AD178387593F3E493F2A308B800020593D9F4DAF27523
:0200B80093FFB4
:2000C0007800E84400600A79007593F0E4F309D8FC7838E84403600C790490F000E4F0A32E
:0400E000D8FCD9FA75
:0F008900E473758139120ABBE5826003020086B9
:1C0A9F0020F71430F6148883A88220F507E6A88375830022E280F7E49322E02266
:040ABB00758200221E
:00000001FF
